:020000041000EA
:1000000000B5324B212058609868022188439860DF
:10001000D860186158612E4B002199600221596106
:100020000121F02299502B49196001219960352056
:1000300000F044F80222904214D00621196600F024
:1000400034F8196E01211966002018661A6600F04E
:100050002CF8196E196E196E052000F02FF8012189
:100060000842F9D1002199601B49196000215960AB
:100070001A491B48016001219960EB211966A021F2
:10008000196600F012F800219960164914480160C1
:100090000121996001BC002800D000471248134993
:1000A000086003C880F30888084703B5996A0420EC
:1000B0000142FBD001200142F8D103BD02B5186610
:1000C0001866FFF7F2FF186E186E02BD00000240BE
:1000D000000000180000070000035F00212200005C
:1000E000F4000018222000A00001001008ED00E03C
:1000F00000000000000000000000000074B24E7A12
:1001000000200420F7010010C3010010C5010010F9
:10011000C1010010C1010010C1010010C101001097
:10012000C1010010C1010010C1010010C701001081
:10013000C1010010C1010010C9010010CB01001065
:10014000CD010010CD010010CD010010CD01001037
:10015000CD010010CD010010CD010010CD01001027
:10016000CD010010CD010010CD010010CD01001017
:10017000CD010010CD010010CD010010CD01001007
:10018000CD010010CD010010CD010010CD010010F7
:10019000CD010010CD010010CD010010CD010010E7
:1001A000CD010010CD010010CD010010CD010010D7
:1001B000CD010010CD010010CD010010CD010010C7
:1001C00000BE00BE00BE00BE00BE00BE00F04BF888
:1001D000103800BEF2EB8871AC2A0010D42A00104F
:1001E0003402001090A31AE700202149086006C8D5
:1001F00081F3088810471F48006800282FD10DA4FC
:100200000ECC002902D000F012F8F9E71A491B4A77
:10021000002000E001C19142FCD1194988471949E9
:1002200088471949884700BEFDE701C901C29A42C3
:10023000FBD37047D42A0010C0000020A002002089
:10024000B42C00100000042000000420B42C001086
:1002500000100420001004200000000070470B482C
:1002600001F068FE0047EFF30580C0B27047000060
:1002700008ED00E0000000D0A00200208026002051
:10028000D516001075030010D11700105756000046
:1002900006005250ABB36053FC29001006005250C8
:1002A000861C03020C2A0010060052505422A29D04
:1002B000182A001005005250DE65F468B42C0010B6
:1002C000F8B5C0460448054B10B5834203D0044B33
:1002D000002B00D0984710BDA0020020A0020020F3
:1002E0000000000006480749091A8B10C90FC918F9
:1002F00010B5491003D0044B002B00D0984710BD17
:10030000A0020020A00200200000000010B5074C51
:100310002378002B09D1FFF7D5FF054B002B02D026
:10032000044800E000BF0123237010BDA00300209B
:1003300000000000D0270010054B10B5002B03D0A3
:100340000449054800E000BFFFF7CCFF10BDC046E0
:1003500000000000A4030020D0270010044B01225D
:100360001968002900D04A1E01201A607047C04653
:1003700048040020F0B5C64600B58CB002F068F81D
:10038000FF2305AD2B80002339493A48AB7002F0BA
:10039000C9F806210600002000F050F901230021D1
:1003A00000223448009302F02FF980235B02069369
:1003B000F31CF2011B0313432F4A0520134007933C
:1003C00080239B0509932D4B089301F07FFB01F0DF
:1003D000AFFE2B4901F091FE071C01F0D1FE84B263
:1003E0000023002C0DD0200001F0A2FE011C381CBF
:1003F00001F07DFE8721C90501F093FE01F0C0FEEA
:10040000C3B224041B0223431A4C06AF320000215E
:10041000200006933B0002F03BF90122236880266E
:100420001343236000F05EFC00230193154B0297F9
:100430000093154A002300F059FC144B802798467E
:100440007F01474476022A680021002000F086F8E8
:1004500000F01EF842461368190263683342FCD16B
:1004600004322161BA42F6D1012000F0A7FDEAE78B
:10047000D027001000002050FFFFFF9F00000670F3
:100480000024F44A5D030010404B4C007814002017
:100490008023F0B54546DE4657464E465B019C46F6
:1004A0000024E0B52A482B4D83B0604401212A4B3B
:1004B0002A00A246AB468146C318019117E059694C
:1004C00018688C4699695C688846D9699D68DE68B9
:1004D0001F69116041465160614680339160D76069
:1004E000166155619461D061203299451ED001207A
:1004F00001994140C9B201910029E0D15968DD68F4
:10050000884699681C698C46196858699F69DE6934
:10051000116041465160614680339160D56014613D
:1005200050619761D66120329945E0D180235446CD
:10053000DB005D4648469C46083420306544202C4C
:10054000B4D103B03CBC90469946A246AB46F0BD40
:10055000780400207814002000F0FFFFF0B5354942
:100560009BB0040001AD01924031602202A801F06D
:100570005DFEAA782B7812041B0213436A78E0010F
:100580001343029A1AAC5A430292039A5A430392B3
:10059000049A5A430492059A5A430592069A5A437A
:1005A0000692079A5A430792089A5A430892099A60
:1005B0005A4309920A9A5A430A920B9A5A430B9247
:1005C0000C9A5A430C920D9A5A430D920E9A5A4322
:1005D0000E920F9A5A430F92109A5A431092119A00
:1005E0005A431192129A5A431292139A5A431392EF
:1005F000149A5A431492159A5A431592169A5A43CA
:100600001692179A5A431792189A5A431892199A9F
:1006100053431993084B0092C01802AB0200190013
:10062000E0C9E0C209681033116080309C42F5D106
:100630001BB0F0BD6028001078040020094A830038
:1006400094464022634410B51C68C0006240C02438
:1006500014408022520113431C60034B9C466044AB
:10066000416010BD04C0014000400140EFF3108024
:1006700072B6034A1368002BFCD0BFF35F8F70473C
:100680002C0100D0BFF35F8F0022024B1A6080F371
:10069000108870472C0100D0F8B5EFF3108772B6C0
:1006A0000E4E3368002BFCD0BFF35F8FCB08C4180D
:1006B0000725A446C45C01230D40AB401800204030
:1006C000234208D1624623431370BFF35F8F30602B
:1006D00087F31088F8BD100001F07CF82C0100D0E1
:1006E000024B18688007C00F7047C04600C0064024
:1006F0000021044B044ABFF35F8F02C39342FAD137
:100700007047C046000100D0800100D0044A107834
:10071000431CDBB2172B00D9102313707047C0465F
:10072000DC010020F8B5040006200D0001F0CEF930
:10073000002845D02B4B2C49E3185A4253418022C4
:10074000D20394465B421340284A63441360284A0C
:10075000136018008A689043FBD1224B8021E31874
:100760005A425341234A5B0049000620995201F046
:10077000ADF92900C00001F00BFCC30921D14027CD
:100780000122260080256262A36200232C36AD017F
:1007900035432B60062001F099F93900800001F003
:1007A000F7FB6023E26A53406E221A4080235B010C
:1007B00033431A60104B236310232B600D3BA3645B
:1007C000F8BD0E4A934203D900230D4F0D4AD8E7D6
:1007D0007F221040013040089F011A003F1803009B
:1007E000CFE7C0460080FCBF00C0004000E00040F2
:1007F00000F000407824002001030000FEFF00000C
:10080000C0FF3F00FFFF000083680B4810B584461F
:1008100061446244090112019A18591854684B68DE
:1008200001209C4201D802D00020C0B210BD126845
:100830000B689A42F9D8F7E7FFFFFF0F10B50800E1
:100840000B690C009847002802D02068616810BD31
:10085000E06000210020FAE70A4B1968EFF31080EE
:1008600072B60A68002AFCD0BFF35F8F1B68BFF323
:100870005F8F00221A6080F3108840BF00200021A3
:100880007047C0465C040020F8B557464E464546C2
:10089000DE46E0B5434D81468A466A68EFF310882C
:1008A00072B61368002BFCD0BFF35F8F2E68B47B49
:1008B000002C3ED0670033683F19033FDA195378A4
:1008C000B373002B00D1F373002393705370137034
:1008D000A968354A8C464946A21812016244116043
:1008E000514651603149D36091603268D21993709A
:1008F00053701370737B9B46002B35D02200190078
:10090000B068736898473268002820D05B46584624
:100910005B005B44D719033BB870D118D35C002B44
:1009200000D07B705B460C7073735C451DD0002655
:1009300026E06B68BFF35F8F1C6088F3108801208E
:1009400040423CBC90469946A246AB46F8BD5B4649
:100950005B005B44033BD3189C70D119D25D002A25
:1009600000D05A705B460B7074734A465346287D1C
:1009700000F008FC061EDAD02100286800F06CFEAA
:10098000EB686A681B19013B1B78BFF35F8F00217E
:10099000116088F310880020002ED2D11802204365
:1009A000CFE7C046E0010020FFFFFF0F590800100D
:1009B000F8B5574645464E46DE46E0B599460CAB7F
:1009C00019780DAB1B78050090469A4607680029F8
:1009D00012D1BE7B002E45D074003B68A419033CA5
:1009E0001B195A783100BA73002A00D1FA73002219
:1009F0009A705A701A7003E00E004C006418033CA1
:100A00002C4B00229C46AB6861449C46434609013E
:100A100061440B604B464B600A9B8B600B9BCB6029
:100A20003B681B199A705A701A707B7B9B46002B8F
:100A30002CD032005946B8687B6898473A6800283D
:100A400017D05B4658465B005B441419033BA0700B
:100A5000D118D35C002B00D063705B460E707B73A3
:100A6000B34514D030003CBC90469946A246AB46F4
:100A7000F8BD5B465B005B44033BD3189E701119C5
:100A8000125D002A00D05A705B460B707E7342469E
:100A90004B46287D00F076FB041E06D05346002B03
:100AA00003D13100286800F0D7FD0E9B002BD9D070
:100AB0001C70D7E7FFFFFF0FF0B5DE464E465746E6
:100AC00045460023E0B58DB00A936B4B8200D358A6
:100AD0000B90994600239B464B46079300F0F2FA91
:100AE000079C06000F006268EFF3108572B613686A
:100AF000002BFCD022000794BFF35F8F2468637B38
:100B00009946002B67D092685C4B90464B441B0182
:100B1000984443461A685B6810001900801BB9416D
:100B200000295FDD0B9800F02DFB0023002698467E
:100B300000279A46079C6368BFF35F8F5A461A6086
:100B400085F310885346002B08D10028C6D10DB07C
:100B50003CBC90469946A246AB46F0BD0A9B414636
:100B600018024B461843D047089009916268EFF38A
:100B7000108572B61368002BFCD00794BFF35F8F0B
:100B80000899099A002A48DB114303D0079B1B6987
:100B9000002B5DD1079B1B68DA7B002A07D0510030
:100BA0008A1819688C4649466244033A51704A468D
:100BB000DA734B46079A013BD168CA5C0132CA54CA
:100BC0005B46079A13615368BFF35F8F5A461A60FA
:100BD00085F3108882E700230026984600279A466E
:100BE0000020A7E7002901D100289BD10021200087
:100BF00000F094FC43461E685F689B68079A9A461B
:100C00004346DB689846D3684B44013B1B780A9304
:100C10001B020343136100208CE72369002BB9D02A
:100C200033003C005B1A94411A002300A74219D8F4
:100C30009F421BD0594604910121039149460291DC
:100C400041460191514607980091FFF7B1FEB7E781
:100C500000F038FA089A099B06000F0092197B41B0
:100C60009942E5D901225242D317E3E79642E1D9EE
:100C700001225242D317DDE74C040020FFFFFF0F93
:100C800010B5124C6368002B04D00A21104800F004
:100C90000BFB10BD23000F4A1021206800F05CFB05
:100CA000032000F003FA032000F0DEFA03200A49D3
:100CB00000F022FAFFF72AFD084B9C46032360440C
:100CC0002375074B80006060DC60DEE7E0010020F8
:100CD0005C04002009080010B90A0010400000342C
:100CE0004C04002000487047E0010020F0B54E465B
:100CF0004546DE465746E0B583B00E9980468946A4
:100D00001100194300D1E7E0D8170600564034001F
:100D100006005E4001003500241A8D4149464046D8
:100D20000A6088600D9A0C984B604A61086100F077
:100D3000C9F902000B00A4185D41200029000090B1
:100D40000191AB4200D9D5E000D1CFE000239A4613
:100D500043465B68EFF3108B72B61A68002AFCD02A
:100D6000BFF35F8F43461D68AC7B002C59D06600F3
:100D70002B683619033E9B195A78AA73002A00D1B2
:100D8000EA730020424698705870187092685E4B63
:100D900094460099019AE3181B01634419605A6054
:100DA0005A4A9A604A46DA602B689B1998705870C4
:100DB00018706F7B002F00D17DE022003900A868F9
:100DC0006B6898472A6800286BD07B00DB1996195E
:100DD000033BB770D118D35C002B00D084E00C70BB
:100DE0006F73BC4268D043464246DB6852681B19A9
:100DF000013B1B78BFF35F8F002111608BF31088DC
:100E00005246002A18D11B021C4301239A464B4626
:100E10005046DC6003B03CBC90469946A246AB46C7
:100E2000F0BD5B68BFF35F8F1C608BF310880023FD
:100E300001249A466442EAE7484603699847824695
:100E4000002801D10024E2E74B461C685D682300BE
:100E50002B4355D0002D0EDA009A019B100019008B
:100E6000001BA94104000D008B420FD8AB4211D0EA
:100E7000009401956CE700F025F906000F00A41915
:100E80007D41A94202D8F3D1A042F1D901246442A4
:100E9000E517EDE7009BA342EAD901246442E51778
:100EA000E6E77B00DB19033BD3189C709119925D38
:100EB000002A16D10F706C734346187D009A019B6F
:100EC00000F060F98246002800D18CE743462100FB
:100ED000186800F0C1FB86E70124002501220023E9
:100EE0001CE75A700F70E6E7737078E700998A4242
:100EF00000D82BE701235B42DC170093019425E720
:100F0000002300249A4682E7FFFFFF0F3D080010F0
:100F1000F0B504000D0006267642F717C6463619CE
:100F20006F4100B58F4213D810D000F0CBF83200DB
:100F30003B00121A8B41002B14DC002B37D0290008
:100F4000200000F0C9F804BC9046F0BD8642ECD900
:100F50000026002700F0B6F832003B00121A8B4141
:100F6000002BEADD30003900FFF78EFC0028E6DBBD
:100F700000239846BC460F4A0F4F7B6A9C4504D815
:100F8000B96A8E42DBD99C45D9D11168EFF3108044
:100F900072B60B68002BFCD0BFF35F8F1368BFF3F2
:100FA0005F8F4146196080F3108820BFE5E7002A73
:100FB000C5D0D7E75C0400200040054070B50600AE
:100FC00000F080F8FA2204000D0000233000002118
:100FD000920001F06FF8001969418D4205D802D0E6
:100FE000FFF796FF70BD8442FAD901204042C11735
:100FF000F6E7C046F0B5D6464F464646C0B5EFF3D5
:1010000005833F22134018001038EFF3108C72B69E
:10101000204D2A68002AFCD0BFF35F8F0122110007
:1010200081401D4C884661631C4917000E788A4632
:101030003100C1400F400A4215D019498200646A4C
:1010400051588C4219D3174BD25843469E435346AE
:101050001E70BFF35F8F00232B608CF31088002A73
:1010600006D0904704E0BFF35F8F2F608CF31088A9
:101070001CBC90469946A246F0BD0B4A9B00904688
:1010800043441A681A60BFF35F8F00232B608CF310
:101090001088EDE7280100D00040054076040020CC
:1010A00060040020C4030020D03F054010B50100BB
:1010B000024A0348FFF7F0FA10BDC046602900104D
:1010C00074040020034B596A0A00986A596A8A42DC
:1010D000FAD1704700400540064A536A9942FCD84D
:1010E00007D1044B02E05A6A914202D19A6A8242C5
:1010F000F9D370470040054070B504000D00EFF3D0
:10110000108672B61A4A1368002BFCD0BFF35F8FAB
:10111000002D1BD0200000F0F1FC164981420AD0BE
:10112000200000F0F3FC0121200000F0D5FC012399
:10113000A340114A1360114BA400E550BFF35F8F29
:1011400000220B4B1A6086F3108870BD0B4BA20077
:10115000D5500122A2400A4920000B7893430B701E
:10116000044900F0FDFC0021200000F0B5FCE5E79B
:10117000280100D0F50F001038600540C40300209E
:1011800076040020F0B54F46D6464646C0B5070067
:10119000304C616A0D00A66A616AA942FAD18B429D
:1011A00008D805D001201CBC90469946A246F0BD47
:1011B000B242F7D9EFF3108972B6274801680029C7
:1011C000FCD0BFF35F8F01252449BD408C460978D0
:1011D000204C0E002E438846F1B28A4661465046A6
:1011E0000870391D1E48890065630A51B9000B500B
:1011F000216A0020294219D0616A0800A66A616A42
:101200008142FAD18B4219D801D1B24216D8C245D7
:101210001DD0104B1F201D625D6301230740BB40A2
:10122000104A1E381360634642461A70BFF35F8F40
:101230000022094B1A6089F31088B4E70020BFF33D
:101240005F8F0022044B1A6089F31088ABE70120FE
:10125000ECE7C04600400540280100D0760400209D
:101260006004002080E200E010B5EFF3108472B655
:101270000A490B68002BFCD0BFF35F8F012383402A
:10128000074A0848136202789A430270BFF35F8FDF
:1012900000230B6084F3108810BDC046280100D0E5
:1012A0000040054076040020024B9C4661448900C2
:1012B000016070474000003410B50400FFF726FAC3
:1012C00001002000FFF7F0FFFF23A380BFF35F8F33
:1012D00010BDC04610B50400FFF718FA0100200049
:1012E000FFF7E2FF01235B42A380BFF35F8F10BDD6
:1012F00070B505000E001400002924D0002A24D067
:1013000080686B689847296800280ED063001B1915
:101310007200033B9219CB18033A9E7088188A5CBE
:10132000002A14D1047030000EE073009B19620093
:10133000033B1219CB18033A9C7088188A5C002A68
:1013400000D05A700670200070BD0800FCE75A708B
:1013500004703000F8E7C04630B583600023CCB29B
:1013600043730133047342608373C4730D000068D8
:10137000012C06D9421C0133DBB2137003329C42AC
:10138000F9D1FF2129404B00591800234018033898
:10139000437030BDF8B5CE46474606000C0080B518
:1013A000002907D04D0003686D18033D5A1957787E
:1013B000002F04D120000CBC90469946F8BD79005E
:1013C000C919033988464344597889460021597020
:1013D000517073683A00210080689847336800288C
:1013E00014D042469A18947059195B5D002B00D0B6
:1013F00053700F70270049463000FFF7CBFF3900CC
:1014000002003000FFF774FF0400D3E74246414674
:101410005D19AF709A185B5C002B00D06B70147074
:10142000E9E7C046F0B557464546DE464E46E0B5CC
:101430000D006B0001685B19DF1E0400C85D83B0FE
:101440000192CA1900284CD043001B18033BCB184B
:101450005E78B446002E16D1019E002E3ED0E67B6B
:10146000002E04D073009B19CB18033B5D70E5730D
:1014700000282FD10023537003B03CBC90469946FE
:10148000A246AB46F0BD72006244033A89184A781E
:10149000904600224A7091465A70010032002000A6
:1014A000FFF726FF43468246002B07D05B002168EA
:1014B0004344033BCB185A78002A16D14246514682
:1014C0002000FFF715FF2168019BCA19002BC6D128
:1014D0000028CFD043001B18033BCB180021997084
:1014E000C8E7019B002BBAD1C4E75000801803382D
:1014F000091848788346484648705870414620008D
:10150000FFF7F6FE594680462000FFF743FF4146AD
:1015100002002000FFF7ECFE8046CFE7F0B54E4614
:101520004546DE465746E0B5467B04007500006838
:10153000AD19033D83B00191415D421900294ED0A0
:101540004B005B18033BC3185F78BC46002F18D1D3
:10155000019D002D40D0E57B002D04D06B005B1970
:10156000C318033B5E70E673002931D100233000BD
:101570005370617303B03CBC90469946A246AB469B
:10158000F0BD7A006244033A801842789346002204
:10159000427091465A7020003A00FFF7A9FE5B4660
:1015A0008046002B07D05B0021685B44033BCB18CF
:1015B0005A78002A17D15A4641462000FFF798FE74
:1015C000019B010020684219002BC4D10029CDD015
:1015D0004B005B18033BC31800209870C6E7019BC3
:1015E000002BB8D1C2E7500080180338091848789A
:1015F000824648464870587059462000FFF778FEEA
:1016000053468346002B07D05B0021685344033BBD
:10161000CB185A78002A06D1594652462000FFF7C7
:1016200067FE8346C7E7500080180338091848460C
:101630004F784870587051462000FFF759FE390026
:1016400081462000FFF7A6FE494602002000FFF772
:101650004FFE8246E0E7C04670B5040000292CD05A
:10166000437B8B422ED00568480040180338281869
:101670008278002A21D053009B18033BEA5CEE18C5
:101680008A4202D11BE0002A08D053009B18033B7A
:10169000EB185A788A42F6D142785A700023012218
:1016A000837043702000FFF7BDFE617B02002000C5
:1016B000FFF71EFE6073012000E0002070BD43783C
:1016C0003370EBE701221900FFF7ACFE60730120D5
:1016D000F4E7C0462F4B304A70B51A602F4A304BA2
:1016E00030491A6010008B689843FBD12E4C2F4B69
:1016F0009C4209D2013B1D1BAD080135AD002D19DF
:1017000008CC9847AC42FBD100F082F8284A244B21
:101710001A60244A9368DB018033FBD14022254BB9
:10172000254C9A675A671A67DA66244B9C4214D292
:10173000013B1D1BED080135ED002D1904E00834B7
:10174000FFF7C8FDAC4208D063792000002BF6D12A
:101750000834FFF7B1FDAC42F6D1194C194DA16820
:10176000C022280000F062FDA560FEF7C1FF00F076
:101770002FFBFFF785FA144C144B9C4209D2013B16
:101780001D1BAD080135AD002D1908CC9847A542A9
:10179000FBD170BD00E00040BFCDFBFEFE7F3C00F2
:1017A00000F0004000C000408C0200209C0200209D
:1017B000FFFFFF0100F00140840200208C020020A6
:1017C00000ED00E0000000209C020020A0020020AC
:1017D00000BEFDE70FB400B5084883B000F0FCFD83
:1017E000049B002B07D005A91800019100F082FB93
:1017F000034800F0F1FD00BEFDE7C046842900105B
:101800009429001010B50148FFF7E4FF9829001053
:1018100030B50C2083B000F049FBFEF761FF0028D3
:101820000ED0944B944A1A605A609A60DA601A613A
:101830005A619A61DA611A62904A5A6203B030BD05
:101840008F4CA06700F03AFB01228E4B1A60636C4C
:10185000012BFCD103228C4B1A60894A936B012B1C
:10186000FCD102240121894A89480533009400F003
:10187000CBFA0523874A01218748009400F0C4FA77
:10188000864B5A68FF2A02D8802252005A60802272
:10189000784C7D4B21691201804D1A60002905D0DA
:1018A000606900F075FB01300138FDD1E0217B4B10
:1018B00002201A681140802252012A4311601968DF
:1018C000484003210140116004219A681142FCD074
:1018D0008022802192012A43090111608022520056
:1018E0005A606F4B23616F4B5968FF2900D85A60CB
:1018F00003226C48634B01211A600200936819426D
:10190000FCD0E02513681D4080235B0103431D606C
:1019100012684A400321114019600221614A93680C
:101920001942FCD0802380219B01034309011960E7
:1019300080215D4B4900516063615C4B5A68FF2A0E
:1019400000D8596080225A4BE1691201574D1A6044
:10195000002905D0606900F01BFB01300138FDD182
:10196000E02252490B681A4080235B012B431A6026
:10197000802380229B012B4312011A6080223E4B60
:1019800052004A60E3614B4B5968FF2900D85A6006
:101990008022494B216A1201464D1A60002905D068
:1019A000606900F0F5FA01300138FDD1E0224149CB
:1019B0000B681A4080235B012B431A60802380222E
:1019C0009B012B4312011A60802380225B004B6035
:1019D000294BD2022362394B5968914200D25A6096
:1019E0008022374B616A1201344D1A60002905D0FC
:1019F000606900F0CDFA01300138FDD1E0222F49B5
:101A00000B681A4080235B012B431A6080238022DD
:101A10009B012B4312011A608023DB024B60174BA2
:101A20006362284B5A68FF2A02D8802252005A600B
:101A30008022254BA1691201224D1A60002905D090
:101A4000606900F0A5FA01300138FDD1E0221D499E
:101A50000B681A4080235B012B431A60802380228D
:101A60009B012B4312011A6080235B004B600E4BDD
:101A7000A361E3E6D4030020006CDC021BB7000086
:101A8000008000403CB0004030B00040002F68595A
:101A90000080024000389C1C00C0024030800040A2
:101AA000001BB7003C800040405973075480004041
:101AB00054B000406080004060B000406C80004046
:101AC0006CB000404880004048B00040014B8000AE
:101AD000C0587047D403002001238340002904D05C
:101AE000034A1360034A13607047034A1360FBE71D
:101AF00080E200E000E100E080E100E0024B103015
:101B00009B688000C058704700ED00E070B50D0084
:101B1000EFF3108672B60F4A1368002BFCD0BFF3A8
:101B20005F8F0D4B10309B6884001B590B4A93420A
:101B300003D09D4201D0FFF765FE074B9B681D5106
:101B4000BFF35F8FBFF35F8F0022024B1A6086F3F3
:101B5000108870BD240100D000ED00E0CD01001020
:101B6000F0B5DE4657464E464546E0B50C0083B01C
:101B7000EFF3108A72B65B4A1368002BFCD0BFF3F8
:101B80005F8F1022914681444A46574B96009B68CE
:101B90009D59564B98469D4205D0A54216D0544FAC
:101BA000EB1B2F2B14D9504B9B689D51BFF35F8FBC
:101BB000BFF35F8F00224B4B1A608AF3108803B08B
:101BC0003CBC90469946A246AB46F0BD1D00EAE7F4
:101BD000012383409B465A46464B1B681A4000929D
:101BE0005A46454B1A60BFF35F8FFEF73CFB0190EE
:101BF000002803D0814501D0FFF704FE01232A000D
:101C00009A431300DB1B5B4142495943090D93681A
:101C10009C4208D15BE043001B189B00FB189868AE
:101C2000A04211D01A00062010560028F3DA009BBB
:101C3000002B05D05A46314B1A602E4B1A60B2E782
:101C40005A462D4B1A60AEE706201856002822DBB4
:101C50004200111889007C188846A1689960E179D2
:101C6000D971062161569971A1797F291FD8A4885D
:101C7000F91A6405241544440919E0240905490D9D
:101C800024022143998012181D4B9200BF181A7824
:101C90001870BA71CBE7019800280BD1FF30907112
:101CA00018489080164A107811709871BFE7BD21CE
:101CB0000902E7E7144A1549D21A083A5002400DC2
:101CC00001439980124952080A43DA80AFE706209F
:101CD000105613000028BBDA019A002AEAD14546C3
:101CE000E0E7C046240100D000ED00E0CD01001087
:101CF0000802002000E100E080E100E080E200E076
:101D00007504002000BDFFFF4202002000F0FFFF2D
:101D100000F8FFFFAAAA0000F8B50125040005435A
:101D2000FEF7A1FA0200EFF3108672B621490B68A4
:101D3000002BFCD0BFF35F8F1F492000401A4041A9
:101D4000224B43431B0D1D48920087685BB2BF586E
:101D5000AF421CD006228A569A421CD012228A56C2
:101D60009A4222D01E228A569A4220D02A228A568D
:101D700003209A4210D0124A11781370A171BFF358
:101D80005F8F00220B4B1A6086F31088F8BD8168C4
:101D90000C488850EFE70020420012189200891882
:101DA000FF228A71084A8A80E5E70120F4E70220D1
:101DB000F2E7C046240100D00802002000ED00E058
:101DC00075040020CD01001000BDFFFFAAAA00008D
:101DD000F0B500220324FF27802620003D00094B98
:101DE00011009C461040C0008540A14361440B682F
:101DF0000132AB43350085402B430B60202AECD1E8
:101E0000F0BDC04600E400E0F8B504000C20170067
:101E10001D000E0000F0BCF84101091A8B01591A8F
:101E2000C90009188901380000F0B2F8069A2B049D
:101E3000120313432268002A21DB184AA2185142D8
:101E40004A41802149018C4652420A401449624469
:101E50000A6014490A60144917008D68AF43FBD12A
:101E6000C021221D8901114321222660A0600A6041
:101E70002268002AFCDAE36008230B60F8BD3F22E9
:101E800021680A40B242D8D1A2681205120D8242DE
:101E9000D3D1E268002BD0D1F0E7C0460040FDBFAF
:101EA00000E0004000F0004000C000408023024AF3
:101EB0009B000343D362704700800540AA23064A73
:101EC0001B0113602F230549D360054B196053682C
:101ED000002BFCDA7047C0460040024000B0FA0018
:101EE0000060024010B5002800D110BD00F066FA75
:101EF000FBE7C04610B5094A0300146884B0002C03
:101F000008D0012200910648524203A9A0470120AF
:101F100004B010BD00F060FA0020F9E7440400208E
:101F2000E51E001001480421014B18475002002013
:101F3000551F0010142310B50100188804331B88A6
:101F4000984710BD162310B50100188802331B886E
:101F5000984710BDF0B5C64600B5002916D0142329
:101F60000400012598461827890046184346216831
:101F700018883B88984701C4431E98414042054059
:101F8000A642F3D1280004BC9046F0BD0125F9E734
:101F9000114A936F9B0813D210665166002905D031
:101FA000FFE7FFE7FFE7516F106F704704B50028A8
:101FB00001D00020C04300F0F3FB002104BDC04667
:101FC000F0B5146E556E576F166FFFF7E5FF146688
:101FD000556657671667F0BD000000D0132370B533
:101FE0001D78012D10D00BDD2448FFF7ABFF244CEA
:101FF00001008022200000F019F9022D01D070BDEF
:102000001F4C204AA264FAE72E001D4C1D4AA3086B
:102010005B421E401D422FD0330022602020B100C1
:102020006118801B0A604A608A60CA600A614A615E
:102030008A61CA610A624A628A62CA620A634A6340
:102040008A63CA630A644A648A64CA640A654A6520
:102050008A65CA650A664A668A66CA660A674A6700
:102060004008102803D18A67CA67A264C7E71E33F5
:102070009B00E250A264C2E70023CFE75344000074
:102080007C2400208920001007B5604601880A0AD8
:102090000230DF2AFAD1C9B2820804D3028840880C
:1020A0000004104300E00068014A5050039007BD4F
:1020B0007C24002051434343C9188C46110C83B241
:1020C0004B4310B4040C614392B280B2504362435C
:1020D0001C041B0C001910BC59411304120CC0182D
:1020E00051416144704700004840414048400E4B18
:1020F0005B6818470C4B1B6818470C4A936F9B088A
:1021000002D2094BDB681847F0B5146E556E576F55
:10211000166FFFF7F6FF054A146655665767166790
:10212000F0BD014B9B6818477C250020000000D0C3
:10213000491A002808D1084670470000C10FC90796
:1021400000D54042002817D0F44603B40B4B1B685F
:10215000984706BC81409E384042803107D20B062A
:1021600007D04900490AC0051043084360470130C1
:10217000F8E7490A8902F5E7704700007C2600204D
:10218000014B5B6A184700007C250020132310B523
:1021900012481C78FFF7D6FE0100012C0AD003DD9F
:1021A00080220F4800F042F80E48FFF7C3FE0E4BA6
:1021B000186010BD0A4C5422200000F037F80B4B79
:1021C0006365A365E36523666366A366E3662367C9
:1021D0006367A367E3672362E361E5E753460000B3
:1021E0007C2500204C3300007C260020F1210010CB
:1021F00007B5604601880A0A0230DF2AFAD1C9B25F
:10220000820804D3028840880004104300E000687C
:10221000014A5050039007BD7C250020014804214D
:10222000014B184760020020551F0010014B5B68EE
:102230001847000060020020F8B54746CE460D0062
:1022400080B516000700002A20DD4B1E98461A4B69
:10225000002400209946002C2BD043461B5D0D3BEB
:102260005A425341DBB22A5D0A2A13D00134A642F6
:10227000F1DC864203DD311A3B6828189847AD1916
:10228000013D2B780D3B5A4253413B740CBC9046A8
:102290009946F8BD002BE9D1A04203DA211A3B6828
:1022A00028189847484602213B6801349847200087
:1022B000DDE73B7CD7E7C046542A0010F0B557460F
:1022C0004546DE464E46D023E0B51B061C68374B1C
:1022D00083B007000D00180001A990469A4600F04F
:1022E00067FA8146002808D1019B64B29C4204D061
:1022F000504600F065FA012399466B1C03D1380063
:1023000000F00EFA05002A4B1C68002C2FD00A237F
:10231000284E9B4602E0E468002C28D02268002A60
:10232000F9D03368002B01D0A342F4D1637C002B99
:102330002AD02A0039002000FFF77EFF4346002BF9
:10234000E9D06B465A461A71637C002B20D0237C5F
:10235000002B26D00121236801A898476B461B79E2
:102360000D3B5A4253412374E468002CD6D14B46AE
:10237000002B12D1681E8541E8B203B03CBC9046E8
:102380009946A246AB46F0BD290038009047D5E7F4
:102390000121236801A89847BDE7504600F0F8F9ED
:1023A000E8E70221044823689847D7E78402002021
:1023B0003C04002040040020542A001010B582B0D4
:1023C0006B4604000022D81D01210470FFF776FF40
:1023D000200002B010BDC04670B5040000F0A0F9A6
:1023E0000122010005002000FFF768FF084B1C6870
:1023F000002C06D06368002B05D09847E468002CB9
:10240000F8D1280070BDE468002CF3D1F9E7C0468C
:102410003C0400200D4A1368002B13D0834202D1E4
:1024200009E0984208D01A00DB68002BF9D1002996
:1024300000D0D06070471A000029FBD1DB68D36060
:10244000C160F7E70029F5D01060F3E73C040020F5
:1024500010B500F043F810BDF0B50D1E15DD0E4BA4
:102460000D271A680D4B4519D31859424B410C4999
:102470005B005E5E20210478A64207D09369194272
:10248000FCD101301460A842F5D1F0BD9369194226
:10249000FCD11760F2E7C046700400200080FCBF4A
:1024A0007824002030B50500002912DD002010241A
:1024B000094B013D1A6893691C4208D101309369A8
:1024C0001C42FCD113682B548142F4D130BD00284A
:1024D000FCD103204042F9E770040020E12110B54F
:1024E0000B4B0C481B780C4B49021B780B4B1860AC
:1024F000FEF718F902210020FEF7A0F802210120C2
:10250000FEF79CF801210648FFF784FF10BDC04686
:10251000CC2A001000400340D02A00107004002094
:1025200070020020F0B5DE46454657464E46E0B5FF
:10253000060083B00D00FEF799F8304B2F79F118A3
:102540004B4259412E4B052498468B009B464346EF
:102550005A469B5820229C460123BB4001902C5791
:10256000013BD21B002C32DB944243DCA340624689
:102570001A423FD19946002F18D06B782A781B0257
:102580001A43AB781B041343EA7812061A439246A7
:10259000002351465A008D5A6A0B00D12D191A1981
:1025A00012329200013395519F42F2D863464A4657
:1025B00059461343424601985350FEF763F82000F2
:1025C00003B03CBC90469946A246AB46F0BD002AFB
:1025D00010DB19006046914014008946014207D182
:1025E000C9E7180061469040140081460842C2D0F5
:1025F000013AF6D20348FFF7EDF8C0460000D0AF2D
:10260000BC030020982A0010F0B54E464546DE4631
:1026100057468B464900E0B50D0080465D44ED000D
:102620004544280009AC2678DC30741EA641894652
:10263000016874428C4615491F268A462640564436
:10264000052B0ED9A02149058A461F27D8355146AA
:1026500054010C430532053B04603A402E60052BC3
:10266000F5D859464944C90041449B0652011A43D2
:102670000B000800DC331A606246D83006601A602E
:102680003CBC90469946A246AB46F0BD80E00000B7
:10269000F0B501258D400468AC434D0004606C1812
:1026A000E40004192600C836002B2AD01F68DC3449
:1026B00037605F6877609F68DB68B76023606B187E
:1026C000DB001D008024D035451964012C43802592
:1026D0002D0625602560114C0D1D8C408460012461
:1026E0002700AF403D0008318C401F2106680A409A
:1026F0003543056005682C430460C018D83002607B
:10270000F0BD80277F023760F8277F027760C027FF
:10271000DC343F03B7602360D1E7C046010101010B
:1027200010B5830727D00378002B26D003000321A0
:1027300002E01A78002A1CD001330B42F9D1196843
:102740000F4A104C8A188A4322420FD10433196869
:102750000B4A8A188A43224208D104331968084A6E
:102760008A188A432242F1D000E001331A78002A05
:10277000FBD1181A10BD0300E1E70020FAE7C046BC
:10278000FFFEFEFE80808080F8B5C046000000009D
:1027900001B40248844601BC604700BF7D010020AF
:1027A00001B40248844601BC604700BFD901002043
:1027B00001B40248844601BC604700BF21010020EB
:1027C00001B40248844601BC604700BFC10000203C
:1027D000D827001004FF000021622311001442A436
:1027E00000000000010000000100000000000000E7
:1027F00001000000000000000000000001000000D7
:1028000001000000000000000000000001000000C6
:1028100001000000000000000000000001000000B6
:1028200001000000000000000000000001000000A6
:102830000000000001000000010000000000000096
:102840000000000000000000010000000000000087
:102850000000000001000000010000000000000076
:102860000000000000000000000000000100000067
:102870000000000000000000000000000100000057
:102880000000000000000000000000000100000047
:102890000000000000000000000000000100000037
:1028A0000000000001000000010000000000000026
:1028B0000100000000000000000000000100000016
:1028C0000100000000000000000000000000000007
:1028D00000000000010000000000000000000000F7
:1028E00000000000000000000100000000000000E7
:1028F00001000000010000000100000001000000D4
:1029000001000000010000000100000001000000C3
:1029100000000000000000000100000000000000B6
:1029200000000000000000000000000001000000A6
:102930000000000000000000000000000100000096
:102940000100000000000000010000000000000085
:102950000000000001000000000000000000000076
:10296000486172647761726520616C61726D2025C7
:102970006420616C726561647920636C61696D6566
:10298000640000000A2A2A2A2050414E4943202A86
:102990002A2A0A000A0000004861726420617373E9
:1029A0006572740052656C6561736500626F6F7467
:1029B000325F7732357130383000000068747470DF
:1029C000733A2F2F6769746875622E636F6D2F726B
:1029D000617370626572727970692F7069636F2DAF
:1029E0006578616D706C65732F747265652F4845ED
:1029F00041442F7261696E626F777300312E322EFF
:102A0000300000007069636F000000007261696E41
:102A1000626F7773000000004F6374203130203202
:102A20003032310006005250BBFF3CB6042A001081
:102A3000060052509A235618BC2900100600525026
:102A4000E182887FAC29001006005250D3F0754215
:102A5000A42900100D0A00005541525420737464DB
:102A6000696E000055415254207374646F75740090
:102A70005541525420737464696E202F207374641E
:102A80006F7574000600525053B4F4A1702A001000
:102A900008005250920000004E6F2070726F6772F3
:0C2AA000616D2073706163650000000030
:102AAC00B4020010A80200109C020010242A00108E
:102ABC0090020010302A00103C2A0010482A001006
:082ACC00842A0010902A00107A
:102AD40070B5D024002524060268EFF3108172B685
:102AE4001368002BFCD0BFF35F8F04230022C3566E
:102AF400A2565E1C16D093420CD14379012B09D9FE
:102B0400013B43710368BFF35F8F00221A6081F3B6
:102B1400108870BD0368BFF35F8F1D6081F3108858
:102B240020BFD9E743790271002BEBD0E8E7C04618
:102B3400030030B50068EFF3108472B60268002A0F
:102B4400FCD0BFF35F8FD02200201206105604225F
:102B54009A56551C14D082420BD0002913D0002061
:102B64000A601B68BFF35F8F00221A6084F3108829
:102B740030BD58790128F0D9013858710120F0E7A7
:102B840018710120EDE70020EBE7C0460268EFF37F
:102B9400108172B61368002BFCD0BFF35F8F4379AA
:102BA400002B0CD00133DBB24371FF2B11D003682F
:102BB400BFF35F8F00221A6081F310887047FF22F1
:102BC40002710268BFF35F8F136081F3108840BF06
:102BD400F4E703710368BFF35F8F00221A6081F387
:102BE400108840BFEAE7C0467047C04610000000A6
:102BF400F801002000000000A0020020FC030020D7
:102C040000000000000000000C0400200000000090
:102C1400000000001000000000000000000001009F
:102C2400000000000000000000000200000000009E
:102C3400000000000000030000000000000000008D
:102C44000000FF000000000000B5486801318E4616
:102C54000047704609380149884700BD191D001016
:102C6400503300004C330000543300005233000052
:102C74004D5300004D430000533400004334000022
:102C84005924001000000000A524001000000000DA
:102C94000001000000000000000000001D220010E0
:102CA400251F0010DD1F00108D21001039030010B6
:04000005100001E9FD
:00000001FF
